{
  "_format": "hh-sol-artifact-1",
  "contractName": "SonovaSBT",
  "sourceName": "contracts/SonovaSBT.sol",
  "abi": [
    {
      "inputs": [
        {
          "internalType": "string",
          "name": "baseTokenURI",
          "type": "string"
        }
      ],
      "stateMutability": "nonpayable",
      "type": "constructor"
    },
    {
      "inputs": [],
      "name": "ERC721EnumerableForbiddenBatchMint",
      "type": "error"
    },
    {
      "inputs": [
        {
          "internalType": "address",
          "name": "sender",
          "type": "address"
        },
        {
          "internalType": "uint256",
          "name": "tokenId",
          "type": "uint256"
        },
        {
          "internalType": "address",
          "name": "owner",
          "type": "address"
        }
      ],
      "name": "ERC721IncorrectOwner",
      "type": "error"
    },
    {
      "inputs": [
        {
          "internalType": "address",
          "name": "operator",
          "type": "address"
        },
        {
          "internalType": "uint256",
          "name": "tokenId",
          "type": "uint256"
        }
      ],
      "name": "ERC721InsufficientApproval",
      "type": "error"
    },
    {
      "inputs": [
        {
          "internalType": "address",
          "name": "approver",
          "type": "address"
        }
      ],
      "name": "ERC721InvalidApprover",
      "type": "error"
    },
    {
      "inputs": [
        {
          "internalType": "address",
          "name": "operator",
          "type": "address"
        }
      ],
      "name": "ERC721InvalidOperator",
      "type": "error"
    },
    {
      "inputs": [
        {
          "internalType": "address",
          "name": "owner",
          "type": "address"
        }
      ],
      "name": "ERC721InvalidOwner",
      "type": "error"
    },
    {
      "inputs": [
        {
          "internalType": "address",
          "name": "receiver",
          "type": "address"
        }
      ],
      "name": "ERC721InvalidReceiver",
      "type": "error"
    },
    {
      "inputs": [
        {
          "internalType": "address",
          "name": "sender",
          "type": "address"
        }
      ],
      "name": "ERC721InvalidSender",
      "type": "error"
    },
    {
      "inputs": [
        {
          "internalType": "uint256",
          "name": "tokenId",
          "type": "uint256"
        }
      ],
      "name": "ERC721NonexistentToken",
      "type": "error"
    },
    {
      "inputs": [
        {
          "internalType": "address",
          "name": "owner",
          "type": "address"
        },
        {
          "internalType": "uint256",
          "name": "index",
          "type": "uint256"
        }
      ],
      "name": "ERC721OutOfBoundsIndex",
      "type": "error"
    },
    {
      "inputs": [
        {
          "internalType": "address",
          "name": "owner",
          "type": "address"
        }
      ],
      "name": "OwnableInvalidOwner",
      "type": "error"
    },
    {
      "inputs": [
        {
          "internalType": "address",
          "name": "account",
          "type": "address"
        }
      ],
      "name": "OwnableUnauthorizedAccount",
      "type": "error"
    },
    {
      "anonymous": false,
      "inputs": [
        {
          "indexed": true,
          "internalType": "address",
          "name": "owner",
          "type": "address"
        },
        {
          "indexed": true,
          "internalType": "address",
          "name": "approved",
          "type": "address"
        },
        {
          "indexed": true,
          "internalType": "uint256",
          "name": "tokenId",
          "type": "uint256"
        }
      ],
      "name": "Approval",
      "type": "event"
    },
    {
      "anonymous": false,
      "inputs": [
        {
          "indexed": true,
          "internalType": "address",
          "name": "owner",
          "type": "address"
        },
        {
          "indexed": true,
          "internalType": "address",
          "name": "operator",
          "type": "address"
        },
        {
          "indexed": false,
          "internalType": "bool",
          "name": "approved",
          "type": "bool"
        }
      ],
      "name": "ApprovalForAll",
      "type": "event"
    },
    {
      "anonymous": false,
      "inputs": [
        {
          "indexed": true,
          "internalType": "address",
          "name": "previousOwner",
          "type": "address"
        },
        {
          "indexed": true,
          "internalType": "address",
          "name": "newOwner",
          "type": "address"
        }
      ],
      "name": "OwnershipTransferred",
      "type": "event"
    },
    {
      "anonymous": false,
      "inputs": [
        {
          "indexed": true,
          "internalType": "address",
          "name": "from",
          "type": "address"
        },
        {
          "indexed": true,
          "internalType": "address",
          "name": "to",
          "type": "address"
        },
        {
          "indexed": true,
          "internalType": "uint256",
          "name": "tokenId",
          "type": "uint256"
        }
      ],
      "name": "Transfer",
      "type": "event"
    },
    {
      "inputs": [
        {
          "internalType": "address",
          "name": "to",
          "type": "address"
        },
        {
          "internalType": "uint256",
          "name": "tokenId",
          "type": "uint256"
        }
      ],
      "name": "approve",
      "outputs": [],
      "stateMutability": "nonpayable",
      "type": "function"
    },
    {
      "inputs": [
        {
          "internalType": "address",
          "name": "owner",
          "type": "address"
        }
      ],
      "name": "balanceOf",
      "outputs": [
        {
          "internalType": "uint256",
          "name": "",
          "type": "uint256"
        }
      ],
      "stateMutability": "view",
      "type": "function"
    },
    {
      "inputs": [
        {
          "internalType": "address[]",
          "name": "_addresses",
          "type": "address[]"
        }
      ],
      "name": "batchMint",
      "outputs": [],
      "stateMutability": "nonpayable",
      "type": "function"
    },
    {
      "inputs": [
        {
          "internalType": "uint256",
          "name": "tokenId",
          "type": "uint256"
        }
      ],
      "name": "getApproved",
      "outputs": [
        {
          "internalType": "address",
          "name": "",
          "type": "address"
        }
      ],
      "stateMutability": "view",
      "type": "function"
    },
    {
      "inputs": [
        {
          "internalType": "address",
          "name": "owner",
          "type": "address"
        },
        {
          "internalType": "address",
          "name": "operator",
          "type": "address"
        }
      ],
      "name": "isApprovedForAll",
      "outputs": [
        {
          "internalType": "bool",
          "name": "",
          "type": "bool"
        }
      ],
      "stateMutability": "view",
      "type": "function"
    },
    {
      "inputs": [],
      "name": "name",
      "outputs": [
        {
          "internalType": "string",
          "name": "",
          "type": "string"
        }
      ],
      "stateMutability": "view",
      "type": "function"
    },
    {
      "inputs": [],
      "name": "owner",
      "outputs": [
        {
          "internalType": "address",
          "name": "",
          "type": "address"
        }
      ],
      "stateMutability": "view",
      "type": "function"
    },
    {
      "inputs": [
        {
          "internalType": "uint256",
          "name": "tokenId",
          "type": "uint256"
        }
      ],
      "name": "ownerOf",
      "outputs": [
        {
          "internalType": "address",
          "name": "",
          "type": "address"
        }
      ],
      "stateMutability": "view",
      "type": "function"
    },
    {
      "inputs": [],
      "name": "renounceOwnership",
      "outputs": [],
      "stateMutability": "nonpayable",
      "type": "function"
    },
    {
      "inputs": [
        {
          "internalType": "address",
          "name": "from",
          "type": "address"
        },
        {
          "internalType": "address",
          "name": "to",
          "type": "address"
        },
        {
          "internalType": "uint256",
          "name": "tokenId",
          "type": "uint256"
        }
      ],
      "name": "safeTransferFrom",
      "outputs": [],
      "stateMutability": "nonpayable",
      "type": "function"
    },
    {
      "inputs": [
        {
          "internalType": "address",
          "name": "from",
          "type": "address"
        },
        {
          "internalType": "address",
          "name": "to",
          "type": "address"
        },
        {
          "internalType": "uint256",
          "name": "tokenId",
          "type": "uint256"
        },
        {
          "internalType": "bytes",
          "name": "data",
          "type": "bytes"
        }
      ],
      "name": "safeTransferFrom",
      "outputs": [],
      "stateMutability": "nonpayable",
      "type": "function"
    },
    {
      "inputs": [
        {
          "internalType": "address",
          "name": "operator",
          "type": "address"
        },
        {
          "internalType": "bool",
          "name": "approved",
          "type": "bool"
        }
      ],
      "name": "setApprovalForAll",
      "outputs": [],
      "stateMutability": "nonpayable",
      "type": "function"
    },
    {
      "inputs": [
        {
          "internalType": "string",
          "name": "_newBaseURI",
          "type": "string"
        }
      ],
      "name": "setBaseURI",
      "outputs": [],
      "stateMutability": "nonpayable",
      "type": "function"
    },
    {
      "inputs": [
        {
          "internalType": "bytes4",
          "name": "interfaceId",
          "type": "bytes4"
        }
      ],
      "name": "supportsInterface",
      "outputs": [
        {
          "internalType": "bool",
          "name": "",
          "type": "bool"
        }
      ],
      "stateMutability": "view",
      "type": "function"
    },
    {
      "inputs": [],
      "name": "symbol",
      "outputs": [
        {
          "internalType": "string",
          "name": "",
          "type": "string"
        }
      ],
      "stateMutability": "view",
      "type": "function"
    },
    {
      "inputs": [
        {
          "internalType": "uint256",
          "name": "index",
          "type": "uint256"
        }
      ],
      "name": "tokenByIndex",
      "outputs": [
        {
          "internalType": "uint256",
          "name": "",
          "type": "uint256"
        }
      ],
      "stateMutability": "view",
      "type": "function"
    },
    {
      "inputs": [
        {
          "internalType": "address",
          "name": "owner",
          "type": "address"
        },
        {
          "internalType": "uint256",
          "name": "index",
          "type": "uint256"
        }
      ],
      "name": "tokenOfOwnerByIndex",
      "outputs": [
        {
          "internalType": "uint256",
          "name": "",
          "type": "uint256"
        }
      ],
      "stateMutability": "view",
      "type": "function"
    },
    {
      "inputs": [
        {
          "internalType": "uint256",
          "name": "tokenId",
          "type": "uint256"
        }
      ],
      "name": "tokenURI",
      "outputs": [
        {
          "internalType": "string",
          "name": "",
          "type": "string"
        }
      ],
      "stateMutability": "view",
      "type": "function"
    },
    {
      "inputs": [],
      "name": "totalSupply",
      "outputs": [
        {
          "internalType": "uint256",
          "name": "",
          "type": "uint256"
        }
      ],
      "stateMutability": "view",
      "type": "function"
    },
    {
      "inputs": [
        {
          "internalType": "address",
          "name": "from",
          "type": "address"
        },
        {
          "internalType": "address",
          "name": "to",
          "type": "address"
        },
        {
          "internalType": "uint256",
          "name": "tokenId",
          "type": "uint256"
        }
      ],
      "name": "transferFrom",
      "outputs": [],
      "stateMutability": "nonpayable",
      "type": "function"
    },
    {
      "inputs": [
        {
          "internalType": "address",
          "name": "newOwner",
          "type": "address"
        }
      ],
      "name": "transferOwnership",
      "outputs": [],
      "stateMutability": "nonpayable",
      "type": "function"
    }
  ],
  "bytecode": "0x608060405234801561001057600080fd5b5060405161176638038061176683398101604081905261002f91610138565b336040518060600160405280602381526020016117436023913960408051808201909152600981526814dbdb9bdd9854d09560ba1b60208201526000610075838261028d565b506001610082828261028d565b5050506001600160a01b0381166100b357604051631e4fbdf760e01b81526000600482015260240160405180910390fd5b6100bc816100d0565b50600b6100c9828261028d565b505061034b565b600a80546001600160a01b038381166001600160a01b0319831681179093556040519116919082907f8be0079c531659141344cd1fd0a4f28419497f9722a3daafe3b4186f6b6457e090600090a35050565b634e487b7160e01b600052604160045260246000fd5b60006020828403121561014a57600080fd5b81516001600160401b0381111561016057600080fd5b8201601f8101841361017157600080fd5b80516001600160401b0381111561018a5761018a610122565b604051601f8201601f19908116603f011681016001600160401b03811182821017156101b8576101b8610122565b6040528181528282016020018610156101d057600080fd5b60005b828110156101ef576020818501810151838301820152016101d3565b50600091810160200191909152949350505050565b600181811c9082168061021857607f821691505b60208210810361023857634e487b7160e01b600052602260045260246000fd5b50919050565b601f82111561028857806000526020600020601f840160051c810160208510156102655750805b601f840160051c820191505b818110156102855760008155600101610271565b50505b505050565b81516001600160401b038111156102a6576102a6610122565b6102ba816102b48454610204565b8461023e565b6020601f8211600181146102ee57600083156102d65750848201515b600019600385901b1c1916600184901b178455610285565b600084815260208120601f198516915b8281101561031e57878501518255602094850194600190920191016102fe565b508482101561033c5786840151600019600387901b60f8161c191681555b50505050600190811b01905550565b6113e98061035a6000396000f3fe608060405234801561001057600080fd5b50600436106101375760003560e01c80636352211e116100b8578063a22cb4651161007c578063a22cb46514610271578063b88d4fde14610284578063c87b56dd14610292578063d67b06c1146102a5578063e985e9c5146102b8578063f2fde38b146102cb57600080fd5b80636352211e1461022a57806370a082311461023d578063715018a6146102505780638da5cb5b1461025857806395d89b411461026957600080fd5b806323b872dd116100ff57806323b872dd146101cb5780632f745c59146101de57806342842e0e146101f15780634f6ccce71461020457806355f804b31461021757600080fd5b806301ffc9a71461013c57806306fdde0314610164578063081812fc14610179578063095ea7b3146101a457806318160ddd146101b9575b600080fd5b61014f61014a366004610e43565b6102de565b60405190151581526020015b60405180910390f35b61016c610309565b60405161015b9190610e74565b61018c610187366004610ec2565b61039b565b6040516001600160a01b03909116815260200161015b565b6101b76101b2366004610ef7565b6103c4565b005b6008545b60405190815260200161015b565b6101b76101d9366004610f21565b6103d3565b6101bd6101ec366004610ef7565b61043c565b6101b76101ff366004610f21565b6104a1565b6101bd610212366004610ec2565b6104c1565b6101b7610225366004611001565b61051a565b61018c610238366004610ec2565b61052e565b6101bd61024b36600461104a565b610539565b6101b7610581565b600a546001600160a01b031661018c565b61016c610595565b6101b761027f366004611065565b6105a4565b6101b76101d93660046110a1565b61016c6102a0366004610ec2565b6105af565b6101b76102b336600461111d565b61064d565b61014f6102c63660046111d1565b6106a3565b6101b76102d936600461104a565b6106d1565b60006001600160e01b0319821663780e9d6360e01b148061030357506103038261070f565b92915050565b60606000805461031890611204565b80601f016020809104026020016040519081016040528092919081815260200182805461034490611204565b80156103915780601f1061036657610100808354040283529160200191610391565b820191906000526020600020905b81548152906001019060200180831161037457829003601f168201915b5050505050905090565b60006103a68261075f565b506000828152600460205260409020546001600160a01b0316610303565b6103cf828233610798565b5050565b60405162461bcd60e51b815260206004820152603360248201527f54686973206973206120536f756c626f756e6420546f6b656e20616e642063616044820152721b9b9bdd081899481d1c985b9cd9995c9c9959606a1b60648201526084015b60405180910390fd5b600061044783610539565b82106104785760405163295f44f760e21b81526001600160a01b038416600482015260248101839052604401610433565b506001600160a01b03919091166000908152600660209081526040808320938352929052205490565b6104bc838383604051806020016040528060008152506103d3565b505050565b60006104cc60085490565b82106104f55760405163295f44f760e21b81526000600482015260248101839052604401610433565b600882815481106105085761050861123e565b90600052602060002001549050919050565b6105226107a5565b600b6103cf82826112a2565b60006103038261075f565b60006001600160a01b038216610565576040516322718ad960e21b815260006004820152602401610433565b506001600160a01b031660009081526003602052604090205490565b6105896107a5565b61059360006107d2565b565b60606001805461031890611204565b6103cf338383610824565b60606105ba8261075f565b50600b80546105c890611204565b80601f01602080910402602001604051908101604052809291908181526020018280546105f490611204565b80156106415780601f1061061657610100808354040283529160200191610641565b820191906000526020600020905b81548152906001019060200180831161062457829003601f168201915b50505050509050919050565b6106556107a5565b80515b8080600190039150506106978282815181106106765761067661123e565b602002602001015161068760085490565b610692906001611377565b6108c3565b60008111610658575050565b6001600160a01b03918216600090815260056020908152604080832093909416825291909152205460ff1690565b6106d96107a5565b6001600160a01b03811661070357604051631e4fbdf760e01b815260006004820152602401610433565b61070c816107d2565b50565b60006001600160e01b031982166380ac58cd60e01b148061074057506001600160e01b03198216635b5e139f60e01b145b8061030357506301ffc9a760e01b6001600160e01b0319831614610303565b6000818152600260205260408120546001600160a01b03168061030357604051637e27328960e01b815260048101849052602401610433565b6104bc8383836001610928565b600a546001600160a01b031633146105935760405163118cdaa760e01b8152336004820152602401610433565b600a80546001600160a01b038381166001600160a01b0319831681179093556040519116919082907f8be0079c531659141344cd1fd0a4f28419497f9722a3daafe3b4186f6b6457e090600090a35050565b6001600160a01b03821661085657604051630b61174360e31b81526001600160a01b0383166004820152602401610433565b6001600160a01b03838116600081815260056020908152604080832094871680845294825291829020805460ff191686151590811790915591519182527f17307eab39ab6107e8899845ad3d59bd9653f200f220920489ca2b5937696c31910160405180910390a3505050565b6001600160a01b0382166108ed57604051633250574960e11b815260006004820152602401610433565b60006108fb83836000610a2e565b90506001600160a01b038116156104bc576040516339e3563760e11b815260006004820152602401610433565b808061093c57506001600160a01b03821615155b156109fe57600061094c8461075f565b90506001600160a01b038316158015906109785750826001600160a01b0316816001600160a01b031614155b801561098b575061098981846106a3565b155b156109b45760405163a9fbf51f60e01b81526001600160a01b0384166004820152602401610433565b81156109fc5783856001600160a01b0316826001600160a01b03167f8c5be1e5ebec7d5bd14f71427d1e84f3dd0314c0f7b2291e5b200ac8c7c3b92560405160405180910390a45b505b5050600090815260046020526040902080546001600160a01b0319166001600160a01b0392909216919091179055565b600080610a3c858585610b03565b90506001600160a01b038116610a9957610a9484600880546000838152600960205260408120829055600182018355919091527ff3f7a9fe364faab93b216da50a3214154f22a0a2b415b23a84c8169e8b636ee30155565b610abc565b846001600160a01b0316816001600160a01b031614610abc57610abc8185610bfc565b6001600160a01b038516610ad857610ad384610c7d565b610afb565b846001600160a01b0316816001600160a01b031614610afb57610afb8585610d2c565b949350505050565b6000828152600260205260408120546001600160a01b0390811690831615610b3057610b30818486610d7c565b6001600160a01b03811615610b6e57610b4d600085600080610928565b6001600160a01b038116600090815260036020526040902080546000190190555b6001600160a01b03851615610b9d576001600160a01b0385166000908152600360205260409020805460010190555b60008481526002602052604080822080546001600160a01b0319166001600160a01b0389811691821790925591518793918516917fddf252ad1be2c89b69c2b068fc378daa952ba7f163c4a11628f55a4df523b3ef91a4949350505050565b6000610c0783610539565b6000838152600760209081526040808320546001600160a01b0388168452600690925290912091925090818314610c5e57600083815260208281526040808320548584528184208190558352600790915290208290555b6000938452600760209081526040808620869055938552525081205550565b600854600090610c8f9060019061138a565b60008381526009602052604081205460088054939450909284908110610cb757610cb761123e565b906000526020600020015490508060088381548110610cd857610cd861123e565b6000918252602080832090910192909255828152600990915260408082208490558582528120556008805480610d1057610d1061139d565b6001900381819060005260206000200160009055905550505050565b60006001610d3984610539565b610d43919061138a565b6001600160a01b039093166000908152600660209081526040808320868452825280832085905593825260079052919091209190915550565b610d87838383610de0565b6104bc576001600160a01b038316610db557604051637e27328960e01b815260048101829052602401610433565b60405163177e802f60e01b81526001600160a01b038316600482015260248101829052604401610433565b60006001600160a01b03831615801590610afb5750826001600160a01b0316846001600160a01b03161480610e1a5750610e1a84846106a3565b80610afb5750506000908152600460205260409020546001600160a01b03908116911614919050565b600060208284031215610e5557600080fd5b81356001600160e01b031981168114610e6d57600080fd5b9392505050565b602081526000825180602084015260005b81811015610ea25760208186018101516040868401015201610e85565b506000604082850101526040601f19601f83011684010191505092915050565b600060208284031215610ed457600080fd5b5035919050565b80356001600160a01b0381168114610ef257600080fd5b919050565b60008060408385031215610f0a57600080fd5b610f1383610edb565b946020939093013593505050565b600080600060608486031215610f3657600080fd5b610f3f84610edb565b9250610f4d60208501610edb565b929592945050506040919091013590565b634e487b7160e01b600052604160045260246000fd5b604051601f8201601f1916810167ffffffffffffffff81118282101715610f9d57610f9d610f5e565b604052919050565b60008067ffffffffffffffff841115610fc057610fc0610f5e565b50601f8301601f1916602001610fd581610f74565b915050828152838383011115610fea57600080fd5b828260208301376000602084830101529392505050565b60006020828403121561101357600080fd5b813567ffffffffffffffff81111561102a57600080fd5b8201601f8101841361103b57600080fd5b610afb84823560208401610fa5565b60006020828403121561105c57600080fd5b610e6d82610edb565b6000806040838503121561107857600080fd5b61108183610edb565b91506020830135801515811461109657600080fd5b809150509250929050565b600080600080608085870312156110b757600080fd5b6110c085610edb565b93506110ce60208601610edb565b925060408501359150606085013567ffffffffffffffff8111156110f157600080fd5b8501601f8101871361110257600080fd5b61111187823560208401610fa5565b91505092959194509250565b60006020828403121561112f57600080fd5b813567ffffffffffffffff81111561114657600080fd5b8201601f8101841361115757600080fd5b803567ffffffffffffffff81111561117157611171610f5e565b8060051b61118160208201610f74565b9182526020818401810192908101908784111561119d57600080fd5b6020850194505b838510156111c6576111b585610edb565b8252602094850194909101906111a4565b979650505050505050565b600080604083850312156111e457600080fd5b6111ed83610edb565b91506111fb60208401610edb565b90509250929050565b600181811c9082168061121857607f821691505b60208210810361123857634e487b7160e01b600052602260045260246000fd5b50919050565b634e487b7160e01b600052603260045260246000fd5b601f8211156104bc57806000526020600020601f840160051c8101602085101561127b5750805b601f840160051c820191505b8181101561129b5760008155600101611287565b5050505050565b815167ffffffffffffffff8111156112bc576112bc610f5e565b6112d0816112ca8454611204565b84611254565b6020601f82116001811461130457600083156112ec5750848201515b600019600385901b1c1916600184901b17845561129b565b600084815260208120601f198516915b828110156113345787850151825560209485019460019092019101611314565b50848210156113525786840151600019600387901b60f8161c191681555b50505050600190811b01905550565b634e487b7160e01b600052601160045260246000fd5b8082018082111561030357610303611361565b8181038181111561030357610303611361565b634e487b7160e01b600052603160045260246000fdfea2646970667358221220def6e1d790398cbea8ffdca6af6339a4a8d740bf22a97a8daf3bb96757c5c7cd64736f6c634300081c0033536f6e6f7661202d2045636f73797374656d206261646765206f6e20536f6e6569756d",
  "linkReferences": {},
  "deployedLinkReferences": {}
}